:020000040800F2
:10000000B004002045010008170D00080F0D00087E
:10001000130D0008310900089B1E000800000000B5
:10002000000000000000000000000000050F0008B4
:100030004D0B0008000000009D0D0008191000087D
:100040005B0100085B0100085B0100085B01000820
:100050005B0100085B0100085B0100085B01000810
:100060005B0100085B0100085B0100085B01000800
:100070005B0100085B0100085B0100085B010008F0
:100080005B0100085B0100085B0100085B010008E0
:100090005B0100085B0100085B0100085B010008D0
:1000A0005B0100085B0100085B0100085B010008C0
:1000B0007D1000085B0100085B0100085B0100087F
:1000C0005B0100085B0100085B0100085B010008A0
:1000D0005B010008811900085B0100085B01000852
:1000E0005B0100085B0100085B0100085B01000880
:1000F0005B0100085B0100085B0100085B01000870
:100100005B0100085B0100085B0100085B0100085F
:100110005B0100085B010008311300085B01000867
:100120005B0100085B0100085B0100085B0100083F
:10013000DFF80CD000F0DAFB0048004791280008F7
:10014000B004002005480047FEE7FEE7FEE7FEE7B3
:10015000FEE7FEE7FEE7FEE7FEE7FEE73101000807
:10016000F0B480EA0102D40F4200B2EB410F02D298
:100170000246084611464A0042D0C30DDDB2C1F323
:10018000C752AD1A202D35DAC1F3160141F4000231
:1001900004B15242C5F1200602FA06F12A41104488
:1001A000B3EBD05F23D0C4B1012DA0EBC35009DC69
:1001B000F0BC4FF0004202EAC352DBB200F500008F
:1001C00000F00FBA400000F1807000EBC350A0F1C6
:1001D000807040EAD170490009E0490841EAC071E5
:1001E000A0EBC35000F50000400800EBC350F0BC8A
:1001F00000F0EEB96142012202EB4101001BF6E77B
:10020000F0BC704781F00041AAE780F00040A7E70A
:1002100080EA010210B502F00043400022D04A00FB
:100220001FD0010E01EB1261C0F35600C2F356025B
:1002300040F4000042F40002A0FB022000047F39D9
:10024000140400D0401C50EA124001D44000491E62
:10025000C2B20C0604EBD010401C4008802A02D029
:1002600003E0002010BD20F00100002900DA00208A
:10027000184310BD30B480EA010202F0004530F0AE
:10028000004221F0004013D090B1C30DD40DC2F351
:100290001601C0F31600E41A41F4000140F4000214
:1002A0007D34914201D3641C00E04900002C02DA45
:1002B00030BC002070474FF400000023914201D36E
:1002C000891A034340084FEA4101F7D151B19142E5
:1002D00002D14FF0004105E002D24FF0010101E0F0
:1002E0006FF0010103EBC450284430BC00F070B93A
:1002F0002DE9FE4F804681EA0300C00F0C460090B6
:1003000021F0004123F00045B8EB0200A94105D2DD
:100310004046214690461C460B46024623F00040CC
:10032000104347D0270DC7F30A00C3F30A510290C8
:10033000401A019040286BDAC3F3130040F4801B8D
:100340000098924620B10023D2EB030A63EB0B0B1B
:1003500001985946C0F14002504600F018F906468F
:100360000D4650465946019A00F020F910EB08005E
:100370006141002487EA115284EAE7731A4340D0AE
:10038000009A62B3019A012A4FEA075215DC001B5A
:1003900061EB02014FF0004202EA0752CDE9004250
:1003A000001C41F5801132462B4600F057F903B08E
:1003B000BDE8F08F40462146F9E7001B61EB0201E2
:1003C000001C41F5801300185B412018A2F50017AE
:1003D00047EB030140EAD570B6196D4111E06D0895
:1003E0004FEA360645EAC0754FEA0752001B61EB3B
:1003F0000201001C41F5801149084FEA3000001944
:10040000514132462B4603B0BDE8F04F00F017B91A
:100410000098012240000023D0EB020263EBE0735E
:10042000009821464FEAE074B8EB000061EB04014C
:10043000E9E783F000435BE781F0004158E7C10F33
:1004400080EAE0700844CA079623002100F0C9B88A
:1004500096230022114600F0C4B820F00040C10DE0
:10046000C0F3160040F400007F2901DA0020704735
:10047000962903DCC1F19601C8407047963988403F
:10048000704700F0004230F000400AD0C10D01F585
:100490006071C0F3160042EA0151C20840071143DF
:1004A000704700200146704730B5041E71F100040A
:1004B00004DB4FF00044404264EB0101141E73F171
:1004C000000405DB1C464FF00043524263EB04037B
:1004D000994208BF904230BD002801DBC0F10040C6
:1004E000002901DBC1F1004181427047002801DB96
:1004F000C0F10040002901DBC1F100418842704792
:1005000030B50B46014600202022012409E021FAE3
:1005100002F59D4205D303FA02F5491B04FA02F5E0
:100520002844151EA2F10102F1DC30BD2DE9F05F77
:100530000546002092469B46884606468146402452
:100540001BE0284641464746224600F0E1F9534663
:100550005A46C01A914110D311461846224600F05F
:1005600016F82D1A67EB01084F462246012000219C
:1005700000F00DF817EB00094E41201EA4F1010414
:10058000DFDC484631462A464346BDE8F09F202A34
:1005900004DB203A00FA02F1002070479140C2F1DA
:1005A000200320FA03F3194390407047202A06DB0A
:1005B000CB17203A41FA02F043EAE07306E041FA31
:1005C00002F3D040C2F1200291400843194670471F
:1005D0000029A8BF7047401C490008BF20F0010057
:1005E000704710B4B0FA80FC00FA0CF050EA010435
:1005F00004BF10BC704749B1CCF1200421FA04F4C7
:1006000011FA0CF118BF012121430843A3EB0C019F
:10061000CB1D4FEA00614FEA102042BF002010BC02
:10062000704700EBC35010440029A4BF10BC7047B2
:10063000401C490008BF20F0010010BC704710B5F5
:10064000141E73F1000408DA401C41F100019218F5
:100650005B411A4301D120F0010010BD2DE9F04D9E
:1006600092469B4611B1B1FA81F202E0B0FA80F2F3
:1006700020329046FFF78BFF04460F4640EA0A00FF
:1006800041EA0B0153465A46084313D0114653EA38
:10069000010019D0C8F14002504600F039F9054672
:1006A0000E46504659464246FFF771FF084305D0B3
:1006B000012004E020463946BDE8F08D00200543C6
:1006C00046EAE0762C4337430A986305E40AA0EB38
:1006D00008000022FD0A44EA47540A3002D50020EF
:1006E0000146E9E7010510196941DDE908450019EE
:1006F0006941BDE8F04DA2E72DE9FE4F81EA030410
:1007000004F0004421F0004100944FF0000B23F06E
:10071000004350EA01045ED052EA03045BD0C3F305
:100720000A54C1F30A552C44A4F2F3340194A0FBFB
:100730000254C1F3130141F48011C3F3130343F4D2
:10074000801301FB024400FB034E840A970A44EA2B
:10075000815447EA8357A4FB076802958D0A05FB7D
:1007600007854FEA932C04FB0C542705029D4FEAA2
:10077000065847EA1637B5EB08056EEB070C870EEF
:10078000920E47EA811742EA8312A7FB0201B6EBF9
:100790000B0164EB00042B0D43EA0C335E1844EBB1
:1007A0001C50DA465146E7FB0201C5F313044FEA39
:1007B0000B3343EA14534FEA0432019C43EA060325
:1007C000A4F10C040294009CCDE900B4FFF746FFAD
:1007D00003B0BDE8F08F00200146F9E72DE9F04DA8
:1007E00081EA030404F0004B21F0004514464FF069
:1007F000000A23F0004150EA050220D054EA010229
:100800001DD0C5F30A570246C5F31303C1F3130005
:10081000C1F30A5640F4801543F48013A7EB060891
:10082000101BD64608F2FD3873EB050002D308F121
:10083000010801E092185B41B8F1000F03DA0020D3
:100840000146BDE8F08D00204FF480110646844635
:100850000EE0171B73EB050705D3121B63EB0503B3
:1008600006434CEA010C49084FEA300092185B41FC
:1008700050EA0107EDD152EA030012D082EA0400E7
:1008800083EA0501084305D0101BAB4106D20122C3
:10089000002306E000224FF0004302E06FF0010267
:1008A00053101AEB06004CEB085110EB0A0041EB19
:1008B0000B01BDE8F04DFFF7C2BEC1F30A52C1F310
:1008C000130140F2FF3341F480119A4202DA002012
:1008D0000146704740F233439A42A2F2334202DCAF
:1008E000524200F015B8FFF752BE0000064C074D0B
:1008F00006E0E06840F0010394E8070098471034F0
:10090000AC42F6D3FFF718FCBC330008DC33000818
:10091000202A04DB203A21FA02F00021704721FA54
:1009200002F3D040C2F120029140084319467047BB
:1009300000BFFEE708B50121082000F051FA0121AF
:10094000042000F04DFA0121102000F049FA4FF484
:100950004040ADF8000014208DF8030003208DF80E
:1009600002006946114800F0F2F84FF47070ADF8DB
:10097000000069460E4800F0EAF84FF41060ADF848
:10098000000069460B4800F0E2F84FF41061074898
:1009900000F0BBF948F22001044800F0B6F94FF42A
:1009A0007071034800F0B1F908BD0000000C01406F
:1009B000001001400008014000B589B0012102206B
:1009C00000F0EEF90121042000F0EAF901210420F1
:1009D00000F006FA0121082000F002FA03208DF849
:1009E000220018208DF82300C020ADF8200008A9AF
:1009F000474800F0ACF840F2C330ADF8200008A939
:100A0000444800F0A4F8444800F0F6FC434800F0E5
:100A1000F3FC40F2CF70ADF818004720ADF8140099
:100A20000020ADF81A00ADF816008DF81C0005A9DD
:100A3000394800F053FF0121374800F0B3FC05A905
:100A4000364800F04BFF0121344800F0ABFC702029
:100A5000ADF804000120ADF806000020ADF8080054
:100A60000220ADF80C000020ADF80A0001A92A48C8
:100A700000F0D0FD0821284800F018FE01A9264802
:100A800000F01EFE0821244800F06CFE01A9224857
:100A900000F076FE0821204800F0C2FE01A91E48A1
:100AA00000F0C8FE08211C4800F002FF01A91B4805
:100AB00000F0B0FD0821194800F0F8FD01A9174821
:100AC00000F0FEFD0821154800F04CFE01A9134876
:100AD00000F056FE0821114800F0A2FE01A90F48BF
:100AE00000F0A8FE08210D4800F0E2FE01210A48AE
:100AF00000F067FC0121084800F06FFC0121074865
:100B000000F05FFC0121054800F067FC09B000BD62
:100B100000080140000C01400004004000080040B3
:100B200008B50121042000F05BF94FF48050ADF8C6
:100B3000000028208DF8030003208DF8020069468C
:100B4000014800F004F808BD0008014070472DE995
:100B5000F041024600250026002000230024002743
:100B600091F803C00CF00F0591F803C00CF0100CC5
:100B7000BCF1000F03D091F802C04CEA050591F8D2
:100B800000C0BCF1000F31D0146800202BE04FF002
:100B9000010C0CFA00F3B1F800C00CEA03069E4207
:100BA00020D183004FF00F0C0CFA03F7BC4305FA79
:100BB00003FC4CEA040491F803C0BCF1280F06D1F1
:100BC0004FF0010C0CFA00FCC2F814C00AE091F8D6
:100BD00003C0BCF1480F05D14FF0010C0CFA00FC2A
:100BE000C2F810C0401C0828D1D31460B1F800C06E
:100BF000BCF1FF0F34DD546800202EE000F1080C3A
:100C00004FF0010808FA0CF3B1F800C00CEA030633
:100C10009E4221D183004FF00F0C0CFA03F7BC4326
:100C200005FA03FC4CEA040491F803C0BCF1280F58
:100C300005D100F1080C08FA0CF8C2F8148091F8FC
:100C400003C0BCF1480F07D100F1080C4FF00108B8
:100C500008FA0CF8C2F81080401C0828CED3546063
:100C6000BDE8F081F0B50A460023002400210025EC
:100C700000F00046B6F1004F02D11D4EF16901E0CF
:100C80001B4E7168C0F3034583B200F44016B6F5FD
:100C9000401F08D121F07061154E766826F070660D
:100CA000134F7E6012E000F48016B6F5801F06D167
:100CB000032606FA05F4A14341F0706106E0460DF3
:100CC000360103FA06F6B14341F0706122B1460DD8
:100CD000360103FA06F6314300F00046B6F1004F44
:100CE00002D1034EF16101E0014E7160F0BD0000E0
:100CF000000001400246002093680B400BB1012028
:100D000000E000207047416170470161704700BFFB
:100D1000FEE700BFFEE7704770B5002100230F22F9
:100D2000C47804B3154C246804F4E064C4F5E064AA
:100D3000210AC1F10403CA40447804FA03F184781B
:100D40001440214309010E4C0678A155047804F0A3
:100D50001F050124AC4005786D11AD0005F1E025BB
:100D6000C5F8004109E0047804F01F050124AC40F7
:100D7000044D0678761145F8264070BD0CED00E074
:100D800000E400E080E100E002490143024A116012
:100D9000704700000000FA050CED00E0704700000D
:100DA00029B1064AD2690243044BDA6104E0034ADE
:100DB000D2698243014BDA617047000000100240A3
:100DC00029B1064A12690243044B1A6104E0034A3E
:100DD00012698243014B1A61704700000010024003
:100DE00029B1064A92690243044B9A6104E0034A1E
:100DF00092698243014B9A617047000000100240E3
:100E000029B1064AD2680243044BDA6004E0034A7F
:100E1000D2688243014BDA60704700000010024044
:100E200030B500210022002400232D4D6D6805F00F
:100E30000C0121B1042905D0082923D105E0294D51
:100E4000056022E0274D05601FE0254D6D6805F423
:100E50007012234D6D6805F48034022505EB924233
:100E60001CB9214D554305600BE01D4D6D6805F41F
:100E700000351DB11C4D5543056002E0194D554329
:100E8000056002E0174D056000BF00BF144D6D689E
:100E900005F0F0010909154D6B5C0568DD40456002
:100EA0000F4D6D6805F4E061090A104D6B5C4568F3
:100EB000DD4085600A4D6D6805F46051C90A0B4D2F
:100EC0006B5C4568DD40C560054D6D6805F44041CB
:100ED000890B074D6B5CC568B5FBF3F5056130BD4B
:100EE0000010024000127A0000093D004800002076
:100EF0005800002010B500F0B7F9FFF71BFDFFF711
:100F00000FFE10BD704710B500F002F810BD0000D4
:100F10000CB50020019000903348006840F4803008
:100F20003149086000BF3048006800F4003000908C
:100F30000198401C0190009818B90198B0F5A06F75
:100F4000F1D12948006800F4003010B10120009070
:100F500001E0002000900098012843D12348006858
:100F600040F01000214908600846006820F00300A6
:100F700008600846006840F0020008601A484068AF
:100F8000194948600846406848600846406840F48F
:100F9000806048600846406820F47C10486008463D
:100FA000406840F4E81048600846006840F08070EF
:100FB000086000BF0C48006800F000700028F9D0FD
:100FC0000948406820F00300074948600846406827
:100FD00040F00200486000BF0348406800F00C0089
:100FE0000828F9D10CBD000000100240002002408A
:100FF000042808D14FF0E021096941F004014FF0C5
:10100000E022116107E04FF0E021096921F00401BD
:101010004FF0E022116170477047000010B513488F
:10102000006840F001001149086008464068104916
:1010300008400E494860084600680E4908400B49C0
:1010400008600846006820F4802008600846406870
:1010500020F4FE0048604FF41F008860FFF753FF44
:101060004FF000600449086010BD0000001002400D
:101070000000FFF8FFFFF6FE08ED00E010B50121CB
:10108000880700F0ADFA00285AD00121880700F047
:1010900095F96C480078002859D06B4800780028F2
:1010A0004FDD6A48007828B94FF480416848FFF75F
:1010B0002AFE40E065480078012804D1C103644855
:1010C000FFF721FE37E061480078022804D1402173
:1010D0006048FFF718FE2EE05C480078032804D132
:1010E00080215C48FFF70FFE25E05848007804286F
:1010F00004D181015748FFF706FE1CE053480078F1
:10110000052805D14FF400715248FFF7FCFD12E0AD
:101110004E480078062805D14FF480714E48FFF7FD
:10112000F2FD08E049480078072804D14FF4006137
:101130004948FFF7E8FD002043490870414908701D
:101140007FE041480078401C3F49087079E03E4804
:101150000078102865DD4FF480513F48FFF7CAFD45
:101160003E49096800EB41003C49086008460068B8
:101170003B49086001203B4908700020374908605E
:101180003248007828B94FF480413148FFF7BDFD5F
:1011900040E02E480078012804D1C1032C48FFF715
:1011A000B4FD37E029480078022804D140212948BD
:1011B000FFF7ABFD2EE025480078032804D18021FD
:1011C0002448FFF7A2FD25E020480078042804D138
:1011D00081012048FFF799FD1CE01C480078052894
:1011E00005D14FF400711B48FFF78FFD12E017483F
:1011F0000078062805D14FF480711748FFF785FD68
:1012000008E012480078072804D14FF40061124822
:10121000FFF77BFD00200C49087001200949087088
:101220000FE009480078401C074908704FF48051CE
:101230000948FFF75FFD0949096800EB41000749CC
:10124000086010BD2400002025000020310000208F
:10125000000C01400010014000080140280000205F
:101260002C0000203000002000B589B00121084684
:10127000FFF796FD01210520FFF7B2FD01210820AF
:10128000FFF7AEFD01212848FFF7ECFC4FF40060AA
:10129000ADF820001C208DF8230003208DF82200DB
:1012A00008A92248FFF753FCC720ADF81800022018
:1012B000ADF814000020ADF81A00ADF8160005A92D
:1012C0004FF0804000F00AFB00220121880700F067
:1012D00098F91C208DF8000000208DF801000320F3
:1012E0008DF8020001208DF803006846FFF714FD19
:1012F0007020ADF804000120ADF806000020ADF824
:101300000C0001A94FF0804000F094FA0821C806B3
:1013100000F0CEFA6421080700F0DDFA0121880709
:1013200000F04FF809B000BD00031800000C0140A8
:1013300010B50121164800F053F940B301211448BB
:1013400000F03CF813480088401C12490880084609
:101350000088B0F57A7F1AD1002008800E480088F6
:10136000401C0D490880084600883C280FD1002009
:1013700008800A480088401C084908800846008800
:101380003C2804D106480088401C0549088010BD4F
:10139000001000401A0000201C0000201E00002049
:1013A0002000002021B1028842F08002028004E087
:1013B00002884FF67F731A4002807047CA43028248
:1013C000704721B1028842F00102028004E00288E5
:1013D0004FF6FE731A400280704731B1B0F84420D6
:1013E00042F40042A0F8442005E0B0F84420C2F3E3
:1013F0000E02A0F84420704710B5044668488442A5
:1014000008D10121C014FFF7FBFC0021E014FFF715
:10141000F7FCC4E0B4F1804F08D101210846FFF782
:10142000CFFC00210120FFF7CBFCB8E05D488442EF
:1014300008D101210220FFF7C3FC00210220FFF7A1
:10144000BFFCACE05848844208D101210420FFF7DA
:10145000B7FC00210420FFF7B3FCA0E0534884420E
:1014600008D101210820FFF7ABFC00210820FFF77D
:10147000A7FC94E04E48844208D101211020FFF7D8
:101480009FFC00211020FFF79BFC88E04948844224
:1014900008D101212020FFF793FC00212020FFF735
:1014A0008FFC7CE04448844208D101214014FFF7BE
:1014B000A7FC00216014FFF7A3FC70E03F488442C2
:1014C00009D10121C804FFF79BFC00214FF4002043
:1014D000FFF796FC63E03A48844209D101210805F0
:1014E000FFF78EFC00214FF48010FFF789FC56E0D7
:1014F0003448844209D101214805FFF781FC0021CD
:101500004FF40010FFF77CFC49E02F48844208D1DB
:1015100001214020FFF754FC00214020FFF750FC40
:101520003DE02A48844208D101218020FFF748FC91
:1015300000218020FFF744FC31E02548844208D197
:1015400001218015FFF73CFC0021A015FFF738FCB6
:1015500025E02048844209D101210804FFF750FC0E
:1015600000214FF48030FFF74BFC18E01A4884420A
:1015700009D101214804FFF743FC00214FF400305A
:10158000FFF73EFC0BE01548844208D10121880496
:10159000FFF736FC00214FF48020FFF731FC10BD2F
:1015A000002C01400004004000080040000C0040F6
:1015B000001000400014004000340140004C014085
:1015C000005001400054014000180040001C004041
:1015D000002000400040014000440140004801401C
:1015E00030B50246002000230024158A05EA0103D5
:1015F000958905EA010413B10CB1012000E0002037
:1016000030BD1AB183890B43838102E083898B4308
:101610008381704770B5002400220023058C4FF6AB
:10162000FE7635400584028C8388048B4FF68F75D7
:101630002C40B51E2C400D882C43751E2A400D8968
:101640002A434D882A43144DA8420BD0134DA8427B
:1016500008D0134DA84205D0124DA84202D0124D19
:10166000A84213D14FF6F7752A404D892A434FF609
:10167000FB752A408D882A434FF6FF652B404FF6B5
:10168000FF552B408D892B43CD892B4383800483C9
:10169000CD888586028470BD002C01400034014055
:1016A0000040014000440140004801400A4600213A
:1016B000018B4FF6F7731940114301837047000007
:1016C00070B5002400220023058C4FF6EF763540DC
:1016D0000584028C8388048B48F6FF752C404FF6F6
:1016E000FF452C400D884FF6FF7606EA05252C4372
:1016F0004FF6DF752A400D8906EA05152A434D8805
:1017000006EA05152A43154DA84202D0144DA842F9
:101710001DD14FF67F752A404D894FF6FF7606EAB8
:1017200005152A434FF6BF752A408D8806EA051530
:101730002A434FF6FF352B404FF2FF752B408D8922
:1017400006EA85052B43CD8906EA85052B43838070
:101750000483CD880587028470BD0000002C014001
:10176000003401400A460021018B4FF2FF731940FB
:101770004FF6FF7303EA0223194301837047000009
:1017800070B5002400220023058C4FF6FF6635401B
:101790000584028C8388848B4FF68F752C404FF61E
:1017A000FC752C400D882C434FF6FF552A400D89BF
:1017B0004FF6FF7606EA05252A434D8806EA0525F9
:1017C0002A43154DA84202D0144DA8421DD14FF214
:1017D000FF752A404D894FF6FF7606EA05252A4314
:1017E0004FF6FF352A408D8806EA05252A434EF636
:1017F000FF752B404DF6FF752B408D8906EA0515C8
:101800002B43CD8906EA05152B4383808483CD883D
:101810008587028470BD0000002C01400034014027
:101820000A460021818B4FF6F773194011438183DB
:101830007047000070B5002200230024058C4EF68E
:10184000FF7635400584038C8488828B48F6FF75CB
:101850002A404FF6FF452A400D884FF6FF7606EAEC
:1018600005252A434DF6FF752B400D8906EA0535FF
:101870002B434D8806EA05352B430B4DA84202D079
:101880000A4DA84208D14BF6FF752C408D894FF6C2
:10189000FF7606EA85152C4384808283CD88A0F8E4
:1018A0004050038470BD0000002C01400034014012
:1018B0000A460021818B4FF2FF7319404FF6FF73E8
:1018C00003EA0223194381837047818670470187A9
:1018D000704781877047A0F8401070470022028847
:1018E0001D4B98420ED01D4B98420BD0B0F1804F4B
:1018F00008D01B4B984205D01A4B984202D01A4B85
:10190000984204D14FF68F731A404B881A43174BF5
:10191000984207D0164B984204D04FF6FF431A4026
:10192000CB881A4302808B8883850B8803850A4BFA
:1019300098420BD0094B984208D00E4B984205D0E4
:101940000D4B984202D00D4B984201D10B7A038681
:101950000123838270470000002C014000340140C5
:101960000004004000080040000C0040001000404F
:101970000014004000400140004401400048014084
:101980002DE9F04140F22551D34800F0C5F9002877
:101990007ED0D14800F07CFAC4B2412C07DB492C40
:1019A00005DC0120CD490870CD48047063E0CB48C8
:1019B000007800285FDD302C01DB392C09DD2E2C6E
:1019C00007D02B2C05D02D2C03D0502C01D0542C1B
:1019D00012D1C2480078012804D1542C02D1002031
:1019E000C0490870BE48BD4909784454BB480078D6
:1019F000401CBA4908703EE0B8480078012819D167
:101A00004B2C17D1B64909784039C8B240F2DC52A4
:101A1000002101F015F8C82000F0FAFEB04909785D
:101A20004039C8B20122022101F00AF80020AB4976
:101A3000087020E0A9480078012819D14C2C17D152
:101A4000A74909784039C8B240F2DC52012100F0C0
:101A5000F7FFC82000F0DCFEA14909784039C8B280
:101A60000122022100F0ECFF00209C49087002E0F6
:101A700000209A4908709948007806287ED1994834
:101A8000007800287AD0002094490870944800E03B
:101A9000AEE00078412872DB9148007848286EDC7F
:101AA0008F494979A1F13000FEF7C9FC07468E49FC
:101AB000FEF7E0FB05468A49C9783039884A9278B2
:101AC000303A02EB820201EB4200FEF7B8FC064618
:101AD0002946FEF745FB85490860814840782D2856
:101AE00006D1084601688248FEF792FB7F490860EC
:101AF0007B4800792E2808D17C4801687848007816
:101B000041387C4A42F82010E3E0754800795028BB
:101B1000FAD1002175480068FEF7E8FC1ED2704932
:101B200009784039C8B240F2DC52002100F088FF49
:101B30006E480068FEF791FC6F490880098801EB48
:101B4000410188B200F064FE654909784039C8B2A5
:101B500040F2DC52022100F073FFBAE060490978DC
:101B60004039C8B240F2DC52012100F069FF5F4801
:101B700001685F48FEF74CFB054601E039E013E0E1
:101B8000FEF76BFC5C490880098801EB410188B2D3
:101B900000F03EFE524909784039C8B240F2DC52AA
:101BA000022100F04DFF94E04D48007849281FD1F4
:101BB0004B494978A1F13000FEF741FC4D490862DC
:101BC00047498978A1F13000FEF739FC494948625C
:101BD0004349C978A1F13000FEF731FC45498862DC
:101BE0003F490979A1F13000FEF729FC4149C8625B
:101BF0006FE03A48007809286BD13A48007800280D
:101C000061D13748407950285DD13548007849285E
:101C10002DD0334909784139C8B201F0A3F83749CA
:101C200008602F4880783038642148432C49C978AF
:101C3000303901EB810100EB41012948007930384E
:101C400008442E494860264880793038642148434A
:101C50002349C979303901EB810100EB410120486A
:101C6000007A303808446338244988602BE01C49E6
:101C700089783039C8B201F096F805462946002027
:101C800001F04CFB1649C9783039C8B201F08BF825
:101C900005462946012001F041FB114909793039F7
:101CA000C8B201F080F805462946032001F036FB52
:101CB0000B4989793039C8B201F075F805462946D3
:101CC000022001F02BFB0120064908700020034987
:101CD0000870BDE8F0810000003801405F0000207E
:101CE000A40000205E0000200000204160000020D1
:101CF000000080BF680000205C00002098000020E9
:101D000021B1828942F40052828104E082894DF639
:101D1000FF731A408281704770B502460024002389
:101D20000025002040F66A16B14200D100BFC1F381
:101D3000421501F01F03012606FA03F3012D02D11B
:101D40009689334006E0022D02D1168A334001E025
:101D5000968A33400C12012606FA04F416883440A1
:101D600013B10CB1012000E0002070BDF0B50346B6
:101D7000002400260025002040F66A17B94200D151
:101D800000BF1846C1F3421401F01F06012707FAED
:101D900006F5012C01D10C3004E0022C01D11030E9
:101DA00000E014301AB107682F43076002E00768AB
:101DB000AF430760F0BD00002DE9F04786B005464F
:101DC0000E460024A24600BFA1460027B08900B1FC
:101DD00000BF2F462C8A4CF6FF700440F088044365
:101DE0002C82AC894EF6F3100440B0883189084348
:101DF000718908430443AC81AC8A4FF6FF4004402C
:101E0000B0890443AC8201A8FFF70AF81F48874253
:101E100002D1DDF810A001E0DDF80CA0A88900F4E3
:101E2000004040B10AEBCA0000EB0A1031684900DB
:101E3000B0FBF1F807E00AEBCA0000EB0A103168CA
:101E40008900B0FBF1F86420B8FBF0F00401200930
:101E5000642101FB1089A88900F4004040B13220C0
:101E600000EBC900B0FBF1F000F00700044308E00C
:101E7000322000EB09106421B0FBF1F000F00F00FC
:101E800004432C8106B0BDE8F08700000038014013
:101E900001468888C0F30800704700BFFEE70000D5
:101EA0000FB4054B10B503A9044A029800F0DAF804
:101EB00010BC5DF814FB00005D28000864000020E1
:101EC00002E008C8121F08C1002AFAD17047704703
:101ED000002001E001C1121F002AFBD17047000061
:101EE0002DE9FF5F82B00021DDE90430020DDDF84D
:101EF00040B0034318D044F61050A2F2FF324243E0
:101F00001514119801281FD0A5EB0B00401C5FEAA7
:101F1000000A4FF000064E4FDFF83891B0465046A9
:101F200015D5CAF1000413E0119801244AA3012831
:101F300001D16FEA0B010298119AC0E90031C0E9A2
:101F4000024206B0BDE8F09FCBF10000DFE7044697
:101F50000021404A491842EB0450CDE9001012E03C
:101F6000E00707D032463B4640464946FEF7C4FBF1
:101F70008046894632463B4610461946FEF7BCFB72
:101F800006460F466410002CEAD1DDE90401DDE9C4
:101F90000023BAF1000F06DAFEF7AEFB42464B46CD
:101FA000FEF7AAFB05E0FEF719FC42464B46FEF79A
:101FB00015FC04460E460022284BFEF775FA03D89E
:101FC0004FF0FF30014607E00022254B2046314606
:101FD000FEF78EF9FEF771FC102409E0002C0ADBF5
:101FE0000A220023FEF7A2FA039B30321A55641E20
:101FF00050EA0102F2D1641C039AC4F111031444A3
:10200000119A012A03D0012208430DD10AE00843A6
:1020100004D000204FF0110B119072E7A3EB0B05D9
:102020006D1E0DE05B4504DD4FF0000205F101057A
:1020300004E003DA4FF00002A5F10105002AECD01C
:1020400002981199C0E90231C0E9004579E7000022
:10205000000014400000F03F300000000000F0439A
:102060000000E03F2DE9FF4F95B09B4689460646AC
:1020700000250FE2252877D100242746F84A0121C0
:10208000059400E0044316F8013F203B01FA03F0F9
:102090001042F7D130782A2811D06FF02F03307812
:1020A000A0F13002092A16D8059A44F0020402EB86
:1020B000820203EB42021044761C0590EFE759F8C8
:1020C000042B0592002A03DA504244F40054059090
:1020D00044F00204761C30782E2816D116F8010F31
:1020E00044F004042A280DD06FF02F023078A0F1BC
:1020F0003003092B09D807EB870302EB4303C7180A
:10210000761CF3E759F8047B761C30786C280FD0E6
:1021100006DC4C2817D068280DD06A2814D104E0BA
:10212000742810D07A280FD10DE044F400140AE08E
:1021300044F4801401E044F440147278824202D1E5
:1021400004F58014761C761C307866280BD013DCDE
:10215000582877D009DC002875D04528F6D04628C5
:10216000F4D047281AD19DE118E0632835D06428BF
:1021700079D0652812D195E1702873D008DC6728E2
:10218000F1D069286FD06E280DD06F2806D1B5E048
:1021900073282CD0752875D0782874D05A46179992
:1021A00090476D1C75E1C4F30250022809D0032842
:1021B0000DD0D9F8001004280DD00D6009F10409E4
:1021C00067E1D9F80010EA17C1E90052F6E7D9F83B
:1021D00000100D80F2E70D70F0E719F8041B8DF880
:1021E000001000208DF80100EA46012003E059F8B4
:1021F00004AB4FF0FF3061074FF0000102D40DE057
:1022000008F101018846B9420FDA8045F8DB1AF877
:1022100008100029F4D108E008F101018846814244
:10222000FADB1AF808100029F6D105985B46A0EBF6
:10223000080721463846179A00F094FA284400EB24
:10224000080507E04DE029E10DE01AF8010B5A46B8
:1022500017999047B8F10108F7D25B4621463846F6
:10226000179A13E142E00A220092C4F302524FF09F
:10227000000A022A08D059F804CB032A4FEAEC716D
:102280000AD00DE029E02AE009F1070121F0070258
:10229000F2E802C1914609E00FFA8CFC4FEAEC71BA
:1022A000042A03D14FFA8CFC4FEAEC71002907DABB
:1022B0000A460021DCF1000C61EB02012D2202E054
:1022C000220504D52B228DF80420012203E0E20729
:1022D00001D02022F7E7904659E00A2102E01022BF
:1022E0000DE010214FF0000A00910BE010224FF09A
:1022F000000A44F004040827009203E008224FF08B
:10230000000A0092C4F30252022A05D059F804CB05
:102310000021032A08D009E009F1070121F0070292
:10232000F2E802C1914605E01FFA8CFC042A01D1B3
:102330000CF0FF0C4FF00008220728D5702806D0BB
:10234000009B83F0100353EA0A0305D00EE04022FD
:102350008DF80420012208E05CEA010206D0302258
:102360008DF804208DF8050002229046009B83F032
:10237000080353EA0A030AD15CEA010201D16207A9
:1023800005D530228DF804204FF001087F1E582813
:1023900004D034A003900EA802900DE036A0F9E717
:1023A00053466046009AFEF7C1F884460398825C63
:1023B0000298401E029002705CEA0100F0D102987F
:1023C00006A9081A00F1200A600702D524F4803417
:1023D00000E00127574502DDA7EB0A0000E00020DE
:1023E00000EB0A01009005984144401A0590E00373
:1023F00006D45B462146179A059800F0B3F90544C8
:10240000002706E001A85A46C05D179990476D1C49
:102410007F1C4745F6DBE0030CD55B462146179A47
:10242000059800F09FF9054404E030205A461799BA
:1024300090476D1C0099481E00900029F5DC08E0CB
:10244000029802995A460078491C029117999047C0
:102450006D1CBAF10001AAF1010AF1DC65E100008E
:10246000092801003031323334353637383961626A
:10247000636465660000000030313233343536372E
:1024800038394142434445460000000000F058F905
:102490000544761C307800287FF4ECAD19B028464E
:1024A000BDE8F08F620700D4062709F1070222F089
:1024B000070CFCE80223E14603F000485FEA080C41
:1024C00002D00FF2702C0DE05FEA045C02D50FF22F
:1024D000682C07E05FEAC47C02D00FF2602C01E0B8
:1024E000AFF2700C4FF0FF3823F00043CDF850C02E
:1024F00065280CD006DC452809D046281DD0472881
:102500003DD13DE0662818D067287ED138E0002113
:10251000112F01DB112000E0781CCDE9000106A994
:102520000EA8FFF7DDFCDDE90F010E9A03910021F3
:10253000009207F1010A04914DE04FF0004000972E
:10254000CDE9011006A90EA8FFF7CAFCDDE90F02CC
:1025500003920E9B11990022DDF80CA000930492C7
:1025600011B9791C00EB010AB7EB0A0004D4C0F1E1
:10257000FF3007F1010A0490AAEB0700019044E044
:10258000012F00DA01270021112F01DD112000E0C9
:102590003846CDE9000106A90EA8FFF7A1FCDDE948
:1025A0000F010E9A0391002104910092BA4621076F
:1025B0000CD40399514500DA8A46BAF1010F05DDC2
:1025C000009AAAF10101515C302908D0B84202DA20
:1025D00010F1040F06DA0121CDE9011015E0AAF18E
:1025E0000101E9E7002805DC049901440491AAEB04
:1025F000000102E0411C514500DD8A460499401A61
:10260000401C01904FF000400290200704D4019834
:10261000504501DBCDF8048000208DF84F00029872
:102620000DF14F07B0F1004F25D02B200E900298EE
:102630004FF0020800280CDA404202902D200E9044
:1026400007E00A210298FDF75BFF3031029007F89E
:10265000011DB8F10001A8F10108F2DC0298002880
:10266000EFD1791E0E980870307800F0200040F00D
:10267000450007F8020D12A8C01B00F107081498C6
:10268000007800B1012000EB0A01019801EBE07134
:1026900005984144401A401E0590E00306D45B466D
:1026A0002146179A059800F05DF8054414980078C3
:1026B00018B15A46179990476D1CE00324D55B4624
:1026C0002146179A059800F04DF805441CE004983F
:1026D000002807DBDDE90301884203DD0098405C48
:1026E000179901E0179930205A469047049805F150
:1026F0000105401C04900198401E019004D12E2039
:102700005A46179990476D1CBAF10001AAF1010AC7
:10271000DDDC05E017F8010B5A46179990476D1C50
:10272000B8F10001A8F10108F4DC5B462146179AD4
:102730000598ABE62D0000002B00000020000000F3
:102740002DE9F041044600251E461746880404D4AE
:1027500005E039462020B0476D1C641EF9D5284697
:10276000BDE8F0812DE9F041044600251E46904663
:10277000C80301D5302700E02027880404D505E0F0
:1027800041463846B0476D1C641EF9D52846BDE861
:10279000F081000008B501211020FEF721FB4FF465
:1027A0000050ADF8000010208DF8030002208DF8D5
:1027B000020069460448FEF7CAF94FF40051024886
:1027C000FEF7A1FA08BD00000010014010B56FF03F
:1027D0000400FEF70DFC0A4800680A49B0FBF1F05E
:1027E000094908700846007800EB4001C1EBC010B1
:1027F0004FF6FF7101EAC0000449088010BD0000D7
:102800000000002000127A001400002016000020B2
:102810000146114A12884A434FF0E0235A610022D0
:102820009A611A46126942F001021A6100BF4FF024
:10283000E022106900F001021AB100F48032002A8F
:10284000F5D04FF0E022126922F001024FF0E023B0
:102850001A6100229A6170471600002000BF054AE5
:10286000128802F04002002AF9D0C2B2014B1B1DAF
:102870001A8070470038014010B54FF4A060FEF791
:1028800083FAFFF7A3FFFFF785FF00F07DFD10BD82
:102890009AB000201690179018901990FEF7BEFB82
:1028A000FFF7EAFFFEF726FB00F006FA00F034FC23
:1028B0004FF4165000F0E2FC002000F07BFA0120FB
:1028C00000F078FA022000F075FA032000F072FAA6
:1028D000042000F06FFA052000F06CFA062000F0EA
:1028E00069FA072000F066FA00F084FC8CE04748A3
:1028F0004068002824DD4548406864384349486002
:102900000846806800280CDB896801EB81014FF6DE
:10291000FF7303EA81023D490878002100F090F836
:1029200016E03A498968494201EB81014FF6FF738D
:1029300003EA810235490878012100F081F807E0B7
:1029400000203249486008780022022100F078F81F
:102950006420FFF75DFF052000F02CFA0D90FDF7D5
:1029600090FD04460D46032000F024FA0D90FDF77B
:1029700088FD06460F46072000F01CFA0D90FDF773
:1029800080FD80468946012000F014FA0D90FDF785
:1029900078FD82468B46042000F00CFA0D90FDF77E
:1029A00070FDCDE91401022000F004FA0D90FDF74E
:1029B00068FDCDE91201062000F0FCF90D90FDF74D
:1029C00060FDCDE91001002000F0F4F90D90FDF755
:1029D00058FDCDE906ABCDE90889CDE90A67CDE917
:1029E0000C45CDE90E01DDE91401CDE90401DDE975
:1029F0001201CDE90201DDE91001CDE9000104A0D9
:102A0000DDE90E23FFF74CFA71E700009800002083
:102A100031302E3020252E306620252E30662025A0
:102A20002E306620252E306620252E306620252E5D
:102A3000306620252E306620252E30665A00000094
:102A400070B505460C461646012D21D144B920210A
:102A50009348FEF75AF910219148FEF754F912E015
:102A6000012C08D110218E48FEF74FF920218C4807
:102A7000FEF749F907E010218948FEF746F92021C1
:102A80008748FEF742F931468648FEF71EFF06E109
:102A9000022D21D144B908218148FEF734F90421DF
:102AA0008148FEF732F912E0012C08D104217E485A
:102AB000FEF729F908217A48FEF727F907E00421F3
:102AC0007948FEF722F908217548FEF71EF93146CC
:102AD0007448FEF7FCFEE2E0032D25D154B94FF413
:102AE00000617248FEF711F94FF480516F48FEF70C
:102AF0000AF914E0012C08D121036C48FEF705F90E
:102B0000E1026A48FEF7FFF809E04FF48051674898
:102B1000FEF7FBF84FF400616448FEF7F6F8314623
:102B20006048FEF7D6FEBAE0042D23D144B929024D
:102B30005E48FEF7E8F869035D48FEF7E6F814E042
:102B4000012C08D1E1035A48FEF7DDF8A1025748ED
:102B5000FEF7DBF809E04FF400415548FEF7D5F8E1
:102B60004FF480615148FEF7D0F831464D48FEF7EA
:102B7000B2FE94E0052D21D144B910214B48FEF757
:102B8000C4F820214948FEF7BEF812E0012C08D114
:102B900020214648FEF7B9F810214448FEF7B3F863
:102BA00007E020214148FEF7B0F810213F48FEF72A
:102BB000ACF831463F48FEF78AFE70E0062D21D181
:102BC000012C08D120213A48FEF79FF810213848FF
:102BD000FEF799F811E044B910213548FEF795F851
:102BE00020213348FEF78FF807E020213048FEF718
:102BF0008CF810212E48FEF788F831462D48FEF754
:102C000064FE4CE0072D25D154B94FF400512448FF
:102C1000FEF77BF84FF480512148FEF774F814E07A
:102C2000012C08D121031E48FEF76FF861031C48F0
:102C3000FEF769F809E04FF400511948FEF765F80E
:102C40004FF480511648FEF760F831461948FEF7F8
:102C500042FE24E0082D22D1012C08D10421104885
:102C6000FEF753F8A1020E48FEF74DF813E04CB9F9
:102C70004FF480610A48FEF748F804210848FEF73F
:102C800042F808E04FF480610548FEF73EF8042161
:102C90000348FEF73AF831460648FEF71AFE70BDC3
:102CA000000C0140000800400014014000100140E9
:102CB000000801400004004008B5FDF77DFE012139
:102CC0000520FEF78DF801211820FEF789F8012173
:102CD0002020FEF785F801211D48FDF7C3FF48F2CB
:102CE0003000ADF8000010208DF8030003208DF8AF
:102CF000020069461748FDF72AFF48F230011548DF
:102D0000FEF703F843F23C40ADF800006946124874
:102D1000FDF71DFF43F23C410F48FDF7F6FF41F67A
:102D20003040ADF8000069460C48FDF710FF41F651
:102D300030410A48FDF7E9FF0420ADF8000069467C
:102D40000748FDF704FF04210548FDF7DEFF08BD35
:102D50000002300000080140000C0140001001405A
:102D60000014014001460A2009B905201AE0012992
:102D700001D1022016E0022901D1072012E0032927
:102D800001D104200EE0042901D101200AE0052927
:102D900001D1032006E0062901D1062002E007291F
:102DA00000D10820704701460120012900D10020F0
:102DB000704700002DE9F041044600250120C0497C
:102DC00008700020BF490870BF490870BF480470F0
:102DD000012211469007FEF714FC00BFBA480078A4
:102DE0000028FBD0BA480068C0F38B10FDF730FB19
:102DF00007464FF08B41FDF73DFA0646B549FDF712
:102E000007FA0546002201218807FEF7FAFB022C8B
:102E100009D1B1492846FDF7F5F90646AF49FDF756
:102E2000F7F9054649E14CB92946AD48FDF7EAF9FD
:102E30000646AA49FDF7ECF905463EE1062C09D104
:102E4000A8492846FDF7DEF90646A449FDF7E0F952
:102E5000054632E1042C09D12946A348FDF7D2F9F1
:102E600006469E49FDF7D4F9054626E1012C46D1D8
:102E70009E4801682846FDF7C5F906469C49FDF7BE
:102E80002BFB02D201209B49087098480168284614
:102E9000FDF7B8F906469849FDF728FB02D2002055
:102EA000944908709148056092480078012809D13A
:102EB00092492846FDF7A6F906469149FDF7A8F97B
:102EC0000546FAE08F492846FDF710FB0DD229464A
:102ED0008D48FDF745F907468849FDF793F9064601
:102EE0008749FDF795F90546E7E084492846FDF74F
:102EF00089F906468249FDF78BF90546DDE0072C86
:102F000048D17A4841682846FDF77CF90646784959
:102F1000FDF7E2FA02D20120764948707348416811
:102F20002846FDF76FF906467349FDF7DFFA02D22E
:102F30000020704948706D4845606E48407801280F
:102F400009D129467148FDF75DF906466C49FDF740
:102F50005FF90546B1E06B492846FDF7C7FA0DD287
:102F600029465C48FDF74EF907466849FDF7F8F831
:102F700006466349FDF74CF905469EE085F000479B
:102F800062493846FDF7ECF806465D49FDF740F921
:102F9000054692E0032C48D1544881682846FDF745
:102FA00031F906465249FDF797FA02D201205149FC
:102FB00088704E4881682846FDF724F906464E4938
:102FC000FDF794FA02D200204A498870474885608C
:102FD00048488078012809D129464D48FDF712F963
:102FE00006464749FDF714F9054666E04549284677
:102FF000FDF77CFA0DD229463648FDF703F907465E
:103000004349FDF7ADF806463D49FDF701F9054690
:1030100053E085F000473E493846FDF7A1F80646E3
:103020003749FDF7F5F8054647E0052C45D12F480F
:10303000C1682846FDF7E6F806462D49FDF74CFA2B
:1030400002D201202B49C8702848C1682846FDF7E4
:10305000D9F806462849FDF749FA02D20020254949
:10306000C8702248C5602348C078012809D1294981
:103070002846FDF7C7F806462149FDF7C9F8054679
:103080001BE020492846FDF731FA0DD229461E489B
:10309000FDF766F807461F49FDF7B4F806461849DC
:1030A000FDF7B6F8054608E01A492846FDF7AAF8E4
:1030B00006461349FDF7ACF805462846BDE8F08101
:1030C00024000020250000203000002031000020D6
:1030D0002C0000200000B4439A99D742C0EC6E3F08
:1030E0000000054300800C4333334C433400002080
:1030F000000096C3440000200000964300002042D8
:103100003333B33E0000C8420000B4C33333174228
:103110009A9917420000924200B589B00121082017
:10312000FDF73EFE01210420FDF75AFE03208DF835
:10313000220018208DF823000F20ADF8200008A9E8
:103140002A48FDF704FD2A48FEF756F940F2CF70F1
:10315000ADF8180040F2CF20ADF814000020ADF813
:103160001A00ADF816008DF81C0005A92048FEF7DE
:10317000B5FB01211E48FEF715F97020ADF80400DB
:103180000120ADF806000020ADF808000220ADF8DF
:103190000C000020ADF80A0001A91548FEF73AFA24
:1031A00008211348FEF782FA01A91148FEF788FAB0
:1031B00008210F48FEF7D6FA01A90D48FEF7E0FAFC
:1031C00008210B48FEF72CFB01A90948FEF732FB4A
:1031D00008210748FEF76CFB01210548FEF7F1F8CE
:1031E00001210348FEF7F9F809B000BD00080140CD
:1031F000000C00401FB500201A4908801A490880B9
:103200001A4908801A4908801A49088001211020AB
:10321000FDF7C6FD40F2E730ADF808004720ADF8F5
:1032200004000020ADF80A00ADF8060001A912481C
:10323000FEF754FB012211460F48FEF7E2F9012187
:103240000D48FEF7BEF836208DF8000000208DF8FE
:1032500001008DF8020001208DF803006846FDF79B
:103260005BFD1FBD180000201A0000201C0000207C
:103270001E000020200000200010004010B586B085
:103280000446012144F20400FDF7AAFD4FF400704A
:10329000ADF8140003208DF8160018208DF81700E3
:1032A00005A91C48FDF753FC4FF48060ADF81400ED
:1032B00004208DF8170005A91648FDF748FC2520C5
:1032C0008DF8000003208DF801008DF80200012028
:1032D0008DF803006846FDF71FFD01940020ADF84E
:1032E0000800ADF80A00ADF80C00ADF810000C2095
:1032F000ADF80E0001A90848FEF75EFD012240F27C
:1033000025510548FEF732FD01210348FEF7F8FC80
:1033100006B010BD000801400038014070B50546F8
:103320000C464DB924B901211648FDF7EEFC03E027
:1033300001211448FDF7E7FC012D09D124B9022130
:103340001048FDF7E2FC03E002210E48FDF7DBFC2C
:10335000022D09D124B904210A48FDF7D6FC03E067
:1033600004210848FDF7CFFC032D09D124B9082119
:103370000448FDF7CAFC03E008210248FDF7C3FC3E
:1033800070BD00000010014008B501211020FDF7BC
:1033900027FD0F20ADF8000010208DF8030003205A
:1033A0008DF8020069460448FDF7D1FB0F21024861
:1033B000FDF7A9FC08BD000000100140DC33000847
:1033C0000000002068000000C01E0008443400080F
:1033D0006800002048040000D01E000800A24A0433
:1033E00000000000000000000102030406070809B5
:1033F00000000000000000000000000000000000CD
:1034000001000000000000000000000000000000BB
:1034100000001242333317429A9917420000924239
:103420000101010100000000010203040102030484
:103430000607080902040608000001000000000059
:043440000000000088
:0400000508000131BD
:00000001FF
